:02000004085F93
:10C0000000C05F08FCFF5F0800000600200005017B
:08C0100004017D150000000091
:10C018001348144908B5884205D0134A824202D011
:10C02800124B121A98471248124A0021124B121A40
:10C03800984712481249884205D0124A824202D0D3
:10C048000A4B121A984710481049884205D0104ADE
:10C05800824202D0054B121A9847014808BD00BF1A
:10C06800C0AD071070EF5F0838AE07102D0D111026
:10C0780038AE0710E8AF0710A10E111028D13F0203
:10C08800A8C05F0830D13F0230D13F02B0C05F087E
:0CC09800F0FF3F0219C05F08000000002C
:08C0A8009CC05F08A0FB3F02F1
:10C0B00010F8012B11F8013B012A28BF9A42F7D052
:10C0C000D01A7047034613F8012B002AFBD1181A27
:10C0D0000138704770B501F049FE0025054E064C49
:10C0E000A41BA408AC4200D170BD56F8043B98478D
:10C0F0000135F7E7CCFF3F02F0FF3F0200F048B800
:10C1000008B500F0ABF8BDE8084001F0E7BD00F06D
:10C110002DBC00F02BBC00F037BC00000C2008B593
:10C12000024A034900F00AFBFEE700BFC9D43F0200
:10C13000B0FB3F020078B0FA80F04009704701235D
:10C14000037070477047000010B50446094B036048
:10C1500000F052FF214601F089F901F013FF01F0D0
:10C1600005FF2046044B40F8043B01F01BF8204635
:10C1700010BD00BFE8FB3F02D0FB3F0210B50446F4
:10C18000FFF7E2FF20462421FFF7C5FF204610BD40
:10C1900037B502F003FB042201230DEB0201082056
:10C1A000019300F07BF902F0F9FA042200250DEB6F
:10C1B00002010A20019500F071F902F0EFFA042261
:10C1C00026240DEB02010C20019400F067F902F027
:10C1D000E5FA04220E200DEB0201019500F05EF954
:10C1E00002F0DCFA042214200DEB0201019400F0AD
:10C1F00055F902F0D3FA04223C230DEB020116207C
:10C20000019300F04BF902F0C9FA042219230DEB57
:10C2100002011820019300F041F902F0BFFA042254
:10C220004B230DEB02011A20019300F037F902F0C5
:10C23000B5FA04224FF402730DEB02011C200193A6
:10C2400000F02CF902F0AAFA042232231E200DEB92
:10C250000201019300F022F903B030BD704770B5C0
:10C260001426D0E90053044606FB0356AE4204D020
:10C27000284600F02DFC1435F8E7206800F084FB18
:10C28000204670BD8842F8B504460D46164616D9BC
:10C29000904215D2A2F11406751AA1F114072C448C
:10C2A000B7421CD02CB13146204600F07AFC337CDA
:10C2B0002374304600F00CFC143E143CF0E70ED022
:10C2C000B5420CD02CB12946204600F06AFC2B7CEC
:10C2D0002374284600F0FCFB14351434F0E7F8BD55
:10C2E00000232DE9F041C0E9003383604F68044624
:10C2F0009F420E4624DD4FF0140808FB07F000F0C3
:10C3000035FB0546E0B1D4E9001208FB0212FFF745
:10C31000B9FF206800F038FB2560A760D6E90073FC
:10C3200008FB0378B84509D03946284600F053FC8D
:10C330003B7C143505F8043C1437F3E773686360FD
:10C340002046BDE8F081000070B50024234B244A4C
:10C350008CB09A60C3E90044032000F019FA21462A
:10C36000012000F023FACDE90044029401F00AFE16
:10C370001C4C05462646694603A8FFF7B1FF03A9F2
:10C3800006A8FFF7ADFF184B06A946F8043B09A81D
:10C39000FFF7A6FF09AA1E21304601F049F909A8B6
:10C3A000FFF75DFF06A8FFF75AFF104B25622360D9
:10C3B00003A8FFF754FF0E4B236001F0E3FD4FF499
:10C3C000165101F0CFFD00F017FE214601F008F8EC
:10C3D0006846FFF744FF0CB070BD00BF38AE0710D1
:10C3E0000000FFFF44AE0710D0FB3F02CCFC3F0231
:10C3F000E8FB3F0209B504480068044B03441B688E
:10C400009B68029309BD0000C0AD071050000000FA
:10C4100009B504480068044B03441B68DB680293B9
:10C4200009BD0000C0AD07105000000009B5044868
:10C430000068044B03441B685B68029309BD00005D
:10C44000C0AD07100000000009B504480068044BA7
:10C4500003441B68DB68029309BD0000C0AD0710F0
:10C460000000000009B504480068044B03441B6841
:10C470005B69029309BD0000C0AD07100000000019
:10C4800009B504480068044B03441B689B6A029387
:10C4900009BD0000C0AD07100000000009B5044848
:10C4A0000068044B03441B689B6C029309BD0000A9
:10C4B000C0AD07100000000009B504480068044B37
:10C4C00003441B685B6C029309BD0000C0AD0710FC
:10C4D0003000000009B504480068044B03441B68A1
:10C4E0009B6C029309BD0000C0AD07103000000036
:10C4F00009B504480068044B03441B68DB6C0293D5
:10C5000009BD0000C0AD07103000000009B50448A7
:10C510000068044B03441B685B6D029309BD000077
:10C52000C0AD07103000000009B504480068044B96
:10C5300003441B685B69029309BD0000C0AD07108E
:10C540004C00000009B504480068044B03441B6814
:10C550009B68029309BD0000C0AD071024000000D5
:10C5600009B504480068044B03441B68DB68029368
:10C5700009BD0000C0AD07102400000009B5044843
:10C580000068044B03441B681B69029309BD00004B
:10C59000C0AD07102400000009B504480068044B32
:10C5A00003441B685B69029309BD0000C0AD07101E
:10C5B0002400000009B504480068044B03441B68CC
:10C5C0009B69029309BD0000C0AD07102400000064
:10C5D00009B504480068044B03441B68DB690293F7
:10C5E00009BD0000C0AD07102400000009B50448D3
:10C5F0000068044B03441B681B6A029309BD0000DA
:10C60000C0AD07102400000009B504480068044BC1
:10C6100003441B689B6A029309BD0000C0AD07106C
:10C620002400000009B504480068044B03441B685B
:10C63000DB6A029309BD0000C0AD071024000000B2
:10C6400009B504480068044B03441B681B6C029343
:10C6500009BD0000C0AD07102400000009B5044862
:10C660000068044B03441B681B68029309BD00006B
:10C67000C0AD07103400000009B504480068044B41
:10C6800003441B685B68029309BD0000C0AD07103E
:10C690003400000009B504480068044B03441B68DB
:10C6A0009B68029309BD0000C0AD07103400000074
:10C6B00009B504480068044B03441B681B690293D6
:10C6C00009BD0000C0AD07103400000009B50448E2
:10C6D0000068044B03441B685B69029309BD0000BA
:10C6E000C0AD07103400000009B504480068044BD1
:10C6F00003441B689B69029309BD0000C0AD07108D
:10C700003400000009B504480068044B03441B686A
:10C71000DB69029309BD0000C0AD071034000000C2
:10C7200009B504480068044B03441B681B6A029364
:10C7300009BD0000C0AD07103400000009B5044871
:10C740000068044B03441B685B6B029309BD000047
:10C75000C0AD07104800000009B504480068044B4C
:10C7600003441B68DB6E029309BD0000C0AD0710D7
:10C770004800000009B504480068044B03441B68E6
:10C780001B6F029309BD0000C0AD071048000000F8
:10C7900009B504480068044B03441B685B680293B6
:10C7A00009BD0000C0AD07100800000009B504482D
:10C7B0000068044B03441B68DB6A029309BD000058
:10C7C000C0AD07100800000009B504480068044B1C
:10C7D00003441B68D3F88830029309BDC0AD07102D
:10C7E0000800000009B504480068044B03441B68B6
:10C7F000D3F89430029309BDC0AD071008000000C3
:10C8000009B504480068044B03441B685B68029345
:10C8100009BD0000C0AD07102800000009B504489C
:10C820000068044B03441B689B68029309BD000029
:10C83000C0AD07102800000009B504480068044B8B
:10C8400003441B68DB68029309BD0000C0AD0710FC
:10C850002800000009B504480068044B03441B6825
:10C860001B69029309BD0000C0AD0710280000003D
:10C8700009B504480068044B03441B685B690293D4
:10C8800009BD0000C0AD07102800000009B504482C
:10C890000068044B03441B689B69029309BD0000B8
:10C8A000C0AD07102800000009B504480068044B1B
:10C8B00003441B68DB69029309BD0000C0AD07108B
:10C8C0002800000009B504480068044B03441B68B5
:10C8D0001B6A029309BD0000C0AD071028000000CC
:10C8E00009B504480068044B03441B681B6B0293A2
:10C8F00009BD0000C0AD07102800000009B50448BC
:10C900000068044B03441B685B6B029309BD000085
:10C91000C0AD07102800000009B504480068044BAA
:10C9200003441B681B6C029309BD0000C0AD0710D7
:10C930002800000009B504480068044B03441B6844
:10C940005B6C029309BD0000C0AD07102800000019
:10C9500009B504480068044B03441B68DB6B029371
:10C9600009BD0000C0AD07102C00000009B5044847
:10C970000068044B03441B681B68029309BD000058
:10C98000C0AD07100400000009B504480068044B5E
:10C9900003441B685B68029309BD0000C0AD07102B
:10C9A0000400000009B504480068044B03441B68F8
:10C9B0009B68029309BD0000C0AD07100400000091
:10C9C00009B504480068044B03441B685B6A029382
:10C9D00009BD0000C0AD07100400000009B50448FF
:10C9E0000068044B03441B68DB6B029309BD000025
:10C9F000C0AD07100400000009B504480068044BEE
:10CA000003441B681B6C029309BD0000C0AD0710F6
:10CA10000400000009B504480068044B03441B6887
:10CA20005B6C029309BD0000C0AD0710040000005C
:10CA3000002240681146FFF745BF002240681146BA
:10CA4000FFF75CBF00224068FFF74ABF0022406842
:10CA500081F00101FFF728BF002340681A461946FC
:10CA6000FFF714BF002340681A461946FFF700BFBE
:10CA7000002240681146FFF7EDBE002240681146D3
:10CA8000FFF7CCBE002202214068FFF7D5BE00238D
:10CA900040681A46FFF7B4BE0322024B5A60024AAE
:10CAA0001A60704768AE071000FC3F0202220020A7
:10CAB000044B1A60044B054AC3E900009A60FFF773
:10CAC00067BE00BF7CAE071070AE07100000FFFF0E
:10CAD00010B504460068FFF757FF204610BD10B59B
:10CAE0000446006808B1FFF74FFF0023C4E9013393
:10CAF000236010BD38B504460D4600680131FFF7CC
:10CB000051FF10B1C4E90005012038BD10B503681C
:10CB1000044623B143688B4201D3012010BD204657
:10CB2000FFF7E8FF0028F9D0A368002BF5D12268B1
:10CB30001370F2E737B50D46114601920446FFF730
:10CB4000E5FF019A28B92046FFF7C9FF204603B048
:10CB500030BD2946A260206801F048FE002122680D
:10CB6000A368D154F2E738B5054600680C4670B1A9
:10CB70006A688B689A4208D3096831B101F0ABFE4C
:10CB8000A368AB600023A36038BDFFF7FDFE2368F8
:10CB90002B6063686B60A368AB600023C4E900335B
:10CBA000F1E7002310B50446C0E900338360037346
:10CBB000FFF7D9FF204610BD884210B5044605D0C6
:10CBC0000B682BB18A681946FFF7B4FF204610BDE9
:10CBD000FFF785FFFAE7002310B50446C0E90033EC
:10CBE00083600373FFF7E8FF204610BD10B543686C
:10CBF0000446013B436063B903689B689847A36898
:10CC0000013BA3602BB923682046BDE81040DB68D8
:10CC1000184710BD70B50446D0E9005305EB031664
:10CC2000AE4204D02846FFF753FF1035F8E72068DE
:10CC3000FFF7AAFE204670BD10B50446006808B193
:10CC4000FFF7D4FF204610BD002302480360FFF722
:10CC500033BC00BF80AE0710F8B506460D46002471
:10CC60008F18BD420CD0336830469B6815F8011B05
:10CC70009847031E01DB1C44F3E7002C08BF1C4649
:10CC80002046F8BD13B50446084659B10191FFF797
:10CC900019FA0246204623680199DB6802B0BDE814
:10CCA0001040184702B010BD03689B681847002366
:10CCB000012A98BF0A2230B58BB08DF8243009AC18
:10CCC0000D46B1FBF2F101FB125303F0FF03092BF8
:10CCD00094BF30333733DBB2AA4204F8013DEFD9B9
:10CCE0002146FFF7CFFF0BB030BD80680368DB68DB
:10CCF00018477047084611B10B685B6818477047C2
:10CD0000704770477047704738B504460D46006855
:10CD10002E2101F0D6FD2368C31A2B6023B10378BE
:10CD200003B1013023682060184638BD10B50446B1
:10CD30000C21FFF7F0F9204610BD10B50446042180
:10CD4000FFF7E9F9204610BD10B504460421FFF7AE
:10CD5000E2F9204610BDFFF7CBBB08B5FFF7A8F9F5
:10CD6000B0FA80F0400908BD704710B50C4601F0DC
:10CD700009F9844205D101F005F9BDE8104001F040
:10CD8000F5B801F07BFC844205D101F077FCBDE8E9
:10CD9000104001F074B92CB123682046BDE8104062
:10CDA0005B68184710BD0B6803604B68436013B1A4
:10CDB0005A6801325A60704713B50446084601911B
:10CDC000FFF780F902462046019902B0BDE8104005
:10CDD00001F014BC13B5044608460191FFF772F93F
:10CDE0000246204623680199DB6802B0BDE8104086
:10CDF000184707B503688DF807100122DB680DF1AD
:10CE00000701984703B05DF804FB0A6810B502609B
:10CE10004A6842600022C0E9022202618C688A608E
:10CE20008460CC68CA60C4600C690A61046110BD8A
:10CE30002DE9F74F4FF0140AD0E900841746454614
:10CE40000AFB04F40093174BA4105C43002C21DD73
:10CE500066100AFB06F005EB0009B9F804B03A4683
:10CE60005F4528BF5A462858019101F03CFD002833
:10CE70004FF0010301990BD15F4503D1009A137064
:10CE80003446E3E7FCD9A61B09F11405013EF7E798
:10CE9000F9DBF5E7A5EB08050248AD10684303B0E0
:10CEA000BDE8F08FCDCCCCCC7FB50369057E019178
:10CEB00003B3F9B1002600F10C04039603A901A8FD
:10CEC000FFF722FF0146A8B10DF10B032046039A9C
:10CED0008DF80B60FFF7ACFF9DF80B3053B1236862
:10CEE000142404FB0034B4F906300834002BA8BF26
:10CEF000DDB2E3E7284604B070BD0EB4F0B58CB0E7
:10CF000000AF07F1440555F8042B04462B462021B9
:10CF100007F110007A60FD60FFF752FD1F287A6864
:10CF20001AD900F1080323F007036E46ADEB030D99
:10CF3000411C2B466846FD60FFF742FD021E04DDE2
:10CF4000236869462046DB689847B5463037BD46BA
:10CF5000BDE8F04003B070470028F7D023680246D0
:10CF6000DB68204607F110019847EFE710B5084C41
:10CF7000D4E88F3FDB0709D42046FFF7DBF828B160
:10CF80002046FFF7DCF8034801F022FC024810BD00
:10CF900088AE071081DD3F02C4AD071010B5084C04
:10CFA000D4E88F3FDB0709D42046FFF7C3F828B148
:10CFB0002046FFF7C4F8034801F00AFC024810BD00
:10CFC0008CAE0710E9DD3F02C8AD071038B500256B
:10CFD0000446C0E90055C0E904558560856140F804
:10CFE000245FFFF769FAFFF7C1FFE061FFF7D6FFA3
:10CFF00025732062204638BD10B50A4CD4E88F3F17
:10D00000DB070CD42046FFF795F840B10648FFF740
:10D01000DDFF2046FFF793F8044801F0D9FB0248F2
:10D0200010BD00BF84AE071094AE0710C9E53F02E3
:10D030000023024A02490348FFF79CBBB1E33F02C9
:10D040003DE33F02BDE23F0200231A46194618465F
:10D05000FFF790BB37B504468D686846FFF7A3FE1F
:10D060006A462946204601F0E9F901A8FFF7E4FDE8
:10D07000204603B030BD37B50446CD686846FFF79B
:10D0800092FE6A462946204601F0B4F901A8FFF74E
:10D09000D3FD204603B030BD37B504460D69684660
:10D0A000FFF781FE6A462946204601F04CF901A8A7
:10D0B000FFF7C2FD204603B030BD000070B58AB056
:10D0C0000D46014604A8FFF7C5FF144E04A801F061
:10D0D000CDF9E8B1684604A9FFF7CDFF31460298C3
:10D0E000FFF73BFE044610B12C1E18BF012401A817
:10D0F000FFF7A2FD002CE9D0684604A9FFF7CCFF9A
:10D10000684601F056F9286001A8FFF795FDDDE7B4
:10D1100005A8FFF791FD0AB070BD00BF34FC3F02C7
:10D1200037B50C46134920461546FEF7C1FF50B9E6
:10D1300000F028FF4FF4165100F014FF03B0BDE8D3
:10D14000304000F01FBF20460B49FEF7B1FF78B911
:10D150004FF4165301A928460193FFF7AFFF01F0E2
:10D160008DFA019900F088FF01F088FA03B030BD14
:10D170000020FBE739FC3F0240FC3F0270B514265B
:10D18000D0E90053044606FB0356AE4205D005F134
:10D190000800FFF7F3FF1435F7E72068FFF7F4FB0B
:10D1A000204670BD10B504460C30FFF7E7FF20465F
:10D1B000FFF730FD204610BD10B50446034B40F884
:10D1C000043BFFF7EFFF204610BD00BFD0FB3F023E
:10D1D00010B50446FFF7F0FF20462421FEF79BFF21
:10D1E000204610BD10B50446024B0360FFF7E4FF74
:10D1F000204610BDE4FC3F0210B50446FFF7F2FFE5
:10D2000020462421FEF787FF204610BD0022C0E9FA
:10D210000022826010B50C680A6004604C684A60A5
:10D2200044608C688A60846010BD10B50446036851
:10D230001868FFF76BF9204610BD00002DE9F04F8C
:10D2400087B003931C4B80465B688946C3F3080391
:10D2500016466BB9FFF7D0FE044600F12403406A7E
:10D260000593FFF778FD237B2BB105A8FFF7DDFFC2
:10D2700007B0BDE8F08F01235FFA89F92373D4E981
:10D28000005305EB830AAA4512D055F8047B3146BA
:10D29000381DFFF709FE8145F5D3039A3B680092DC
:10D2A000D3F808B04A46334641463846D847EAE7FD
:10D2B00000232373D9E700BF00ED00E02DE9F74F0D
:10D2C0009B461A4B80465B688946C3F308031646A3
:10D2D0006BB9FFF791FE044600F12403406A019305
:10D2E000FFF739FD237B2BB101A8FFF79EFF03B0A9
:10D2F000BDE8F08F0123F6B22373D4E9005305EBA8
:10D30000830A55450ED055F8047B5946381DFFF762
:10D31000CBFD8642F5D33B684A4641463846DB683A
:10D320009847EEE700232373DEE700BF00ED00E03F
:10D330002DE9F341164B05465B680F46C3F308031E
:10D340001BBBFFF759FE044600F12403406A01931A
:10D35000FFF701FDD4E90063462406EB8308B045DE
:10D3600009D101A8FFF761FFA542B4BF0020012049
:10D3700002B0BDE8F08156F8040B39460430FFF7DF
:10D3800093FD8442A8BF0446E9E70020F0E700BF10
:10D3900000ED00E0F8B5D0E901539D4204460E4689
:10D3A0000DDB6F1C002F006804DDB900FFF7FAFAEF
:10D3B00018B9F8BDFFF7E8FA00202060A7602768D9
:10D3C000626807EB85019200A2EB8502081D01F05F
:10D3D0001AFA47F825606368012001336360E8E7C3
:10D3E00037B5044600F12403406A01930D46FFF768
:10D3F000B2FCD4E9003203EB8202934219460AD010
:10D4000009680433A942F8D101A8FFF70EFF0025EF
:10D41000284603B030BD29462046FFF7BBFF05462E
:10D420000028F1D06368012B01D1FFF701FE01A8AC
:10D43000FFF7FBFEECE70B4670B50446D0E90002AF
:10D4400000EB820282420FD001461D6851F8046B46
:10D45000AE4207D1521A01F0D6F901206368013BB0
:10D46000636070BD0846EDE70020FAE71FB504468B
:10D4700000F12403406A01910393FFF76CFC2046FE
:10D4800001A9FFF7D8FF18B163680BB9FFF7DCFDFE
:10D4900003A8FFF7CAFE04B010BD182370B50446F8
:10D4A000D0E9045603FB0656AE4215D0204605F1DE
:10D4B0001001FFF7C0FF63680BB9FFF7C5FDE06916
:10D4C00029690368DB689847696919B1206A0368AC
:10D4D000DB6898471835E7E71826D4E9045306FBBC
:10D4E0000356AE4204D02846FFF7F2FA1835F8E7A3
:10D4F0000023636170BD73B50446FFF7A5FD04F119
:10D500002403606A0193FFF726FC2046FFF7C5FF5E
:10D5100001A8FFF78AFE606A08B1FEF7DBFFD4E9D5
:10D520000453182606FB0356AE4204D02846FFF7E4
:10D53000CFFA1835F8E72069FFF726FA2068FFF7D9
:10D5400023FA204602B070BD0148FFF7D4BF00BFE8
:10D5500094AE07108842F8B504460D46164615D914
:10D56000904214D2A2F11406751AA1F114072C44AA
:10D57000B7421AD01CB131462046FFF746FC06F1EF
:10D580000800FFF7FBFD143E143CF1E70DD0B54257
:10D590000BD01CB129462046FFF737FC05F10800E7
:10D5A000FFF7ECFD14351434F1E7F8BD8842F8B507
:10D5B00004460D46164614D9904213D2A2F1100625
:10D5C000751AA1F110072C44B74218D01CB131468E
:10D5D0002046FFF7E6FA3046FFF77AFA103E103C95
:10D5E000F2E70CD0B5420AD01CB129462046FFF71D
:10D5F000D8FA2846FFF76CFA10351034F2E7F8BD78
:10D6000070B50E1E054611DD3001FFF7AFF9044677
:10D6100058B1D5E9001201EB0212FFF7C7FF2868E5
:10D62000FFF7B2F901202C60AE6070BD0024F6E770
:10D630002DE9F04F90460023462295B00391D8F88B
:10D64000041004469942C0E90033C0E90233C0E93E
:10D650000433CDE9083302760A9323DCD8E9005776
:10D66000142303FB0757AF423BD029460BA8FFF713
:10D6700098FA0BA90FA8099EFFF793FADDE90913A1
:10D6800099421BDA089B099A03EB0616314603EB15
:10D69000021206F11000FFF789FFEEB9099B013372
:10D6A000099311E008A8FFF7ABFF0028D6D108A81E
:10D6B000FFF7B0FA204615B0BDE8F08F013108A899
:10D6C000FFF79EFF0028DDD10FA8FFF701FA0BA896
:10D6D000FFF7FEF91435C6E730460FA9FFF761FAE8
:10D6E000DCE700264FF01409CDE90B660D96DDE965
:10D6F00008239E427CDA3301D35806930BB90136D6
:10D70000F5E70023079309FB06F30BAD029307A986
:10D7100006A8FFF7F9FA82460028F0D04FF0000380
:10D7200001468DF817302846079A0DF11703FFF7C9
:10D730007FFB9DF817700190002F4AD1BDF81C3077
:10D74000CDE91177ADF840304FF6FF73CDF83CA02E
:10D75000ADF842301397D5E90132934217DB03F15C
:10D76000010ABAF1000F30DD09FB0AF0FFF7FEF8FD
:10D77000834660B3D5E9001209FB0212FFF7EAFE07
:10D780002868FFF701F9C5F800B0C5F808A02B68B4
:10D79000019A09FB023A6A68514609FB02320AF112
:10D7A0001400FFF7D7FEBAF1000F03D050460FA9BF
:10D7B000FFF72BFB6B6801336B6011A8FFF7DEFCF2
:10D7C0003FB10BA8FFF7DAFC71E7BB46D8E70127AA
:10D7D000F3E7019B2D6809FB0355069B1B782BB9CA
:10D7E000D8F80030029A13441B7CEB8008358EE792
:10D7F0002168226062686360A36809920A9A0A93AA
:10D80000E368A2600B9A0B932369E2600C9A0C9375
:10D81000636922610D9A0D93039B089162612376DF
:10D82000CFE70000F0B504462646174687B00D4600
:10D8300068461946FEF754FD0B4B694646F8043B13
:10D8400003A8FEF74DFD394603AA3046FFF7F0FE68
:10D8500003A8FEF704FD6846FEF701FD2046034BD2
:10D860002562236007B0F0BDD0FB3F02CCFC3F0235
:10D87000F0B50F4685B038461C4916461D460A9C31
:10D88000FEF716FCC0B9A4B1294601A8FFF7BEFCFB
:10D890002420174900F098FF054630B101AB32460D
:10D8A0002146FFF7BFFF134B2B6001A8FEF7D7FC03
:10D8B0002C46204605B0F0BD38460F49FEF7F8FB70
:10D8C00090B9002CF5D0294601A8FFF79FFC242031
:10D8D000074900F079FF05460028E6D03246214688
:10D8E00001ABFFF79FFFE0E70024E2E748FC3F02BF
:10D8F00035FE3F02E4FC3F024CFC3F02014B024A72
:10D900001A60704790AE07105DFC3F022DE9F047AA
:10D91000089DD0F8209004460E461746984600F021
:10D9200031FB81454DD02B79190704D520466A6912
:10D930005449FFF7E2FAB8F1000F0DD05B21204601
:10D94000FFF757FA41462046FFF744FA23680222C0
:10D950002046DB684C4998472B79DA0724D5D5F85F
:10D9600008802F21404600F0D2FF08B100F10108E5
:10D9700041462046FFF72EFA2B799B0708D53A211E
:10D980002046FFF736FA2046EA684049FFF7B5FA25
:10D990002A79236812F0040F20464FF00202DB6858
:10D9A00014BF3B493B4998472B7958071DD5296936
:10D9B0000B461A4613F8010B60B1202808D119460E
:10D9C000F7E7354800F0D7FB0028ACD0BDE8F0877A
:10D9D0002828EED12368521A2046DB68984723682E
:10D9E00004222046DB682D49984700213846FEF77F
:10D9F000B3FE01462046FFF7EDF9236802222046D8
:10DA0000DB68244998471EB131462046FFF7E2F90A
:10DA10002B7913F0300F2CD023682149DB680222C8
:10DA2000204698472B79D9060AD523680722204635
:10DA30001C49DB6898472046AA691B49FFF75DFA35
:10DA40002B799A0611D5DB0605D5236802222046DC
:10DA5000DB680F4998472368204614490A22DB688F
:10DA600098472046E969FFF7B5F95D212046FFF7A1
:10DA7000C0F923682046BDE8F0470222DB680C4964
:10DA8000184700BF61FC3F0268FC3F026BFC3F028D
:10DA90006EFC3F0273FC3F02F8AE071071FC3F02C0
:10DAA00076FC3F0279FC3F0281FC3F0284FC3F028E
:10DAB0008FFC3F022DE9F0410446076A0D461646E9
:10DAC00000F060FA874207D0206A32460368294690
:10DAD000BDE8F041DB681847034800F04CFB002824
:10DAE000F2D0BDE8F08100BFF8AE07102DE9F04399
:10DAF00085B0D0F8209005460F4690461E460C9CF7
:10DB000000F040FA814505D1494800F034FB002877
:10DB100040F08A804FF000092B6A464A01A8019222
:10DB200003938DF8089000F0CAFC49464046FEF782
:10DB300013FE80464049012201A800F04FFD4146F6
:10DB4000FFF73AF93FB13D49012201A800F046FD37
:10DB50003946FFF731F93EB13949012201A800F0F9
:10DB60003DFD3146FFF728F92379DF070ED5A6687A
:10DB70002F21304600F0CBFE00B1461C3149012276
:10DB800001A800F02BFD3146FFF716F923799E0717
:10DB900007D52D49022201A800F020FDE16800F020
:10DBA0009BFC2379580714D5266933461F4613F882
:10DBB000012B2AB1202A01D11E46F7E7282AF5D1E8
:10DBC0000222224901A800F009FD3146BA1B00F0EB
:10DBD00015FD2379190707D51D49012201A800F079
:10DBE000FDFC616900F08AFC2379DA0608D504227D
:10DBF00018490DEB020000F0F1FCA16900F06CFC8B
:10DC000023799B0607D51449062201A800F0E6FCFB
:10DC1000E169FFF7D1F801A800F03BFC286A022275
:10DC200003680E49DB68984705B0BDE8F08300BF84
:10DC3000F8AE0710B4FC3F023EFC3F0292FC3F02EC
:10DC4000C8FE3F0294FC3F0296FC3F0299FC3F0253
:10DC50009CFC3F029EFC3F02A3FC3F028FFC3F0264
:10DC6000024B1A68024B1A60704700BFCCAD071018
:10DC7000BCAE07100022014B9A607047C0AE07107F
:10DC8000014B1860704700BFD0AD071008B50F4BAF
:10DC900043B100F077F903681B699847002801DD5C
:10DCA00000E000BF0A4B43B100F0E8FC03681B69C9
:10DCB0009847002801DD00E000BF064B0BB100F0E3
:10DCC00023FD054B0BB100F055FD08BD0000000021
:10DCD00000000000000000000000000008B5FFF791
:10DCE000D5FFFEF7BFFB014B186008BD48AF07101A
:10DCF0000548064A08B5121A054900F077FD054B9C
:10DD0000054A1A6008BD00BF00B4071004B407102C
:10DD1000E8EF5F0800B407101E1C279A002307B520
:10DD20001A466FF077010093FEF75CFD03B05DF8D3
:10DD300004FB000007B543880A2B08D0502B0BD1F9
:10DD4000094B1B684BB103B05DF804EB1847FFF7B4
:10DD5000E5FF03B05DF804FB00231A466FF077017E
:10DD60000093FEF73FFDF4E7D4AE0710002110B595
:10DD70001148FEF74FFE114B1A68114B9A420CBF27
:10DD8000012200220F4B1A7001D0FFF7B1FFFEF7FE
:10DD90004DFB044600F05AFD0B4B13B1204600E04A
:10DDA00000BF00210848FEF7D3FDBDE81040002168
:10DDB0000648FEF709BD00BF01ED3F0200B40710A1
:10DDC0001E1C279AD0AE071000000000B5ED3F02E0
:10DDD000704710B504461821FEF79DF9204610BD86
:10DDE000F0B5037D0E46062B4FF000048DB000F118
:10DDF000040712D000F1080515F8011D0A2230466B
:10DE0000FEF755FFAF42044419D0002CF4D02E2168
:10DE10003046FEF749FF0444EEE72F236A463946B1
:10DE20000A208DF80040FEF77FFB6846FEF74AF9AE
:10DE30003368024669463046DB6898470446204608
:10DE40000DB0F0BD10B50446044B1122002140F87E
:10DE5000043B00F0F2FC204610BD00BF48FD3F022D
:10DE60000346074A10B543F8042B01F1100251F89C
:10DE7000044B914243F8044BF9D10A781A7010BD53
:10DE800048FD3F0210B59DF8084044EA032343EAE9
:10DE90000242042342EA01614160037510BD0000A3
:10DEA00007B5064B0360CB7800938B784A780978E6
:10DEB000FFF7E8FF03B05DF804FB00BF48FD3F0239
:10DEC000417470477047704708B50021007CFEF729
:10DED0000BFC40EAE07008BD08B50121007CFEF7AC
:10DEE00003FC40EAE07008BD08B5007CFEF7EEFBDD
:10DEF00020EAE07008BD08B5007CFEF7D9FB20EAF7
:10DF0000E07008BD13B50446007C0191FEF7DEFB0E
:10DF10000028019901DC607C20B1207CFEF7F2FB37
:10DF200020EAE07002B010BD007CFEF7F9BB10B52E
:10DF300004461421FEF7EFF8204610BD10B54FF44B
:10DF40007A73044608460021C4E90113044B207487
:10DF50002360012311466374FEF780FB204610BD49
:10DF60005CFD3F020022007CFEF786BB007CFEF7D2
:10DF700091BB10B504461422002100F05EFC20463F
:10DF800010BD000010B588B003A8FFF7F2FF0C4CDD
:10DF9000D4E88F1F11F001010FD120460191FEF747
:10DFA000C9F8019948B103AA0648FFF7C7FF204600
:10DFB000FEF7C5F8044800F00BFC024808B010BD9D
:10DFC000D8AE0710DCAE071045EF3F027047417432
:10DFD000704708B5007CFEF717FB20EAE07008BD2B
:10DFE00008B5007CFEF7CAFA20EAE07008BD08B563
:10DFF000007CFEF7DFFA40EAE07008BD08B5007C5F
:10E00000FEF7CAFA40EAE07008BD007CFEF7E0BA0D
:10E0100037B5457C04462DB1207C03B0BDE83040C7
:10E02000FEF79EBA007C0191FEF7EEFA00280199F6
:10E03000F2DC284603B030BD10B504461421FEF7CB
:10E040006AF8204610BD000010B54FF47A730446FC
:10E05000084611460022C4E90123044B20742360C2
:10E0600001236374FEF7ECFA204610BD8CFD3F02DD
:10E070000023007CFEF7D6BA0022FFF7F9BF007C30
:10E08000FEF760BA007CFEF7B1BA00224068114684
:10E09000FEF7E0BB002240681146FEF713BC0022E9
:10E0A00040681146FEF72ABC00224068FEF718BC03
:10E0B0000022406881F00101FEF7F6BB00234068B2
:10E0C0001A461946FEF7E2BB002340681A46194675
:10E0D000FEF7CEBB002240681146FEF79FBB002230
:10E0E00002214068FEF7A8BB002340681A46FEF7ED
:10E0F00087BB00000422024B5A60024A1A60704734
:10E10000F0AE0710BCFD3F02002340681A46FEF740
:10E1100077BB002202214068FEF78EBB00224068D8
:10E120001146FEF77BBB002240681146FEF792BB0A
:10E13000002340681A461946FEF79ABB0023406840
:10E140001A461946FEF7A2BB00214068FEF7E4BB61
:10E1500000214068FEF7EEBB0022406881F001011B
:10E16000FEF7A2BB00224068FEF7BABB002240685F
:10E170001146FEF7C3BB002240681146FEF7A2BB62
:10E180002DE9F04395B014460D460746FFF75AFEB9
:10E1900000211C220DA8009100F04FFB40232046D7
:10E1A0000C9300216B460CAAFEF732F904460028B6
:10E1B0004BD1024601216868FEF74CFB02218046E4
:10E1C00022466868FEF746FB21468146009E002EE7
:10E1D0003BD0002939D17368022B03D00A2B11D010
:10E1E000F669F4E7B8F1000FFAD0716906A80431B6
:10E1F0003C1D07ADFFF754FE0FCD0FC42B68414601
:10E200002370EDE7B9F1000FEAD0102201A874697C
:10E2100000F013FB062301AD8DF8143004F1080360
:10E2200018342A4618685968083303C2A3421546B1
:10E23000F7D101A906A83C1D07ADFFF711FE0FCDD0
:10E240000FC42B6849462370CAE70098FEF7D2F83E
:10E25000384615B0BDE8F083024B034A1A6000222D
:10E260005A607047F8AE0710F8FD3F02012200F136
:10E27000100313F8101C1846012908D153F8041C88
:10E2800002EB4102013A03F11003F2D17047022977
:10E2900004BF53F8041C5218F4E70EB4F0B588B06C
:10E2A000102100AF07F1340555F8042B04462B4626
:10E2B00078187A60FD60FEF783FB0F287A681AD918
:10E2C00000F1080323F007036E46ADEB030D411C7C
:10E2D0002B466846FD60FEF773FB021E04DD2368D3
:10E2E000694620469B689847B5462037BD46BDE83D
:10E2F000F04003B070470028F7D0236802469B68BF
:10E30000204607F110019847EFE738B50B6804463F
:10E3100003604D6843689D4208D015B16B680133B6
:10E320006B60606808B1FEF761FC656038BD07B5D9
:10E3300003688DF8071001229B680DF107019847CB
:10E3400003B05DF804FB0B461146002210B50446ED
:10E35000C0E9002283600BB9204610BDFFF7D5FF4E
:10E36000FAE78368EBB11A78032A1AD8DFE802F0DB
:10E370000417021B0520704702685B685268D05C76
:10E380002D2812D0A0F13003092B0ED974280ED0FD
:10E3900066280CD0A0F16E03584258417047062001
:10E3A0007047002070470420704703207047022008
:10E3B000704710B50446FFF7D4FF02280ED0C31EE5
:10E3C000DBB2012B14D82268A36850685B680A226C
:10E3D000BDE810400021184400F030BB2268A3685B
:10E3E00052685B68D05CA0F174035842584110BD7C
:10E3F0000020FCE738B500230446C0E900330E488E
:10E40000C4E90203A9B10B78032B06D08BB91368BA
:10E4100058684B68C35C6E2B07D013684D6858680A
:10E420008B6828445B1BA060E36011462046FFF721
:10E430006CFF204638BD00BF91FC3F0238B5002577
:10E440000B4604461146C0E90055C0E90255C0E933
:10E4500004554BB11A78012A06D103F11002DB688A
:10E4600082604361FFF751FF204638BD10B5436914
:10E47000044663B18068013BE0601030A060206119
:10E48000636113B1FFF7F2FEA060012000E01846BF
:10E4900010BD10B57D210446FFF749FF012320463A
:10E4A000237110BD08B50379012B02D0022B04D0D3
:10E4B00008BD2C21FFF73BFFFAE73A21FAE710B538
:10E4C0000446FFF7EFFF20467B21FFF730FF0023D4
:10E4D0002046237110BD000013B504460191FFF7DB
:10E4E000E1FF23682046DB68019A0349984701232E
:10E4F0002046237102B010BD6BFC3F0213B50446E9
:10E500000191FFF7CFFF23682046DB68019A03499A
:10E51000984701232046237102B010BD2CFE3F0214
:10E520002DE9F0470D469046222104462F46FFF77D
:10E53000FEFEDFF8A490A8444745BA463DD017F840
:10E54000016B222E06D05C2E04D0304600F046F936
:10E550000028F1D12368294620469B68AAEB0502D2
:10E5600098475C212046FFF7E2FE0D2E0AD8072EC1
:10E570001CD9A6F10803052B18D8DFE803F00D0F0E
:10E5800011171315222E01D05C2E0FD131462046D3
:10E59000FFF7CDFE3D46CFE76221F8E77421F6E7AD
:10E5A0006E21F4E76621F2E77221F0E72368324634
:10E5B00049462046DB689847ECE7BD4205D0236812
:10E5C000294620469B687A1B984722212046FFF760
:10E5D000AEFEBDE8F08700BF2FFE3F0213B5044634
:10E5E000CDE90021FFF75EFFDDE900212046FFF7BE
:10E5F00097FF02232046237102B010BD13B50446D5
:10E60000CDE90021FFF74EFFDDE900212046FFF7AD
:10E6100087FF01232046237102B010BD7047000020
:10E6200038B5142504462A46002100F006F9258055
:10E630004025074928462581258200F0C7F804496E
:10E640006060284600F0C2F8E060204638BD00BF98
:10E6500035FE3F027047704710B50446FFF7E0FFF4
:10E66000204610BD10B50446FFF7DAFF204610BD66
:10E6700010B50446FFF7D4FF204610BD30B50E4D4F
:10E6800087B0D5E88F1F11F0010411D12846FDF79E
:10E6900051FD68B101A8FFF7DFFF214601AA074835
:10E6A000FFF7D2FC2846FDF74AFD054800F090F838
:10E6B000024807B030BD00BF00AF07100CAF071015
:10E6C0009DF63F0210B50D4C86B0D4E88F3FDB07B6
:10E6D00011D42046FDF72EFD68B101A8FFF7C2FF57
:10E6E000012101AA0648FFF7AFFC2046FDF727FDF0
:10E6F000044800F06DF8024806B010BD04AF0710E2
:10E7000020AF0710D7F63F0210B5FFF7DBFF074B2E
:10E71000044653B1FFF7B6FC38B1236820461B69A5
:10E720009847002801DD00E000BF10BD0000000098
:10E7300010B50D4C86B0D4E88F3FDB0711D42046CE
:10E74000FDF7F8FC68B101A8FFF792FF022101AACA
:10E750000648FFF779FC2046FDF7F1FC044800F07D
:10E7600037F8024806B010BD08AF071034AF0710E5
:10E77000D5F63F0210B5FFF7DBFF074B044653B158
:10E78000FFF780FC38B1236820461B6998470028B2
:10E7900001DD00E000BF10BD0000000010B5084C16
:10E7A000D4E88F3FDB0708D42046FDF7C3FC20B137
:10E7B000FDF766FE2046FDF7C2FC024810BD00BF13
:10E7C0004CAF071050AF0710FDF7A1BCFDF7A1BC7F
:10E7D000002301461A46184600F03AB9024B184485
:10E7E000407800F097007047CAFE3F020A44431E7B
:10E7F000914200D1704710B511F8014B914203F8D6
:10E80000014FF9D110BD884210B501EB020402D9C5
:10E810008442234607D8431EA14208D011F8012B99
:10E8200003F8012FF8E7024401468A4200D110BDE7
:10E8300013F8014D02F8014DF7E7024403469342F5
:10E8400000D1704703F8011BF9E7000038B5104B01
:10E8500004461D68AB6BB3B91820FEF787F8024673
:10E86000A86320B90B4B42210B48FEF7C5F80B49B2
:10E870000B4BC0E900130B4B002183600B238381FA
:10E880000120C2E90401AB6B00221C615A6138BD52
:10E89000D0AD071036FE3F024DFE3F020E33CDAB2A
:10E8A00034126DE6ECDE0500C9B2034610F8012B08
:10E8B0001AB18A42F9D118467047002918BF0023BF
:10E8C000F9E710B50446FFF7EFFF18B92046FDF74A
:10E8D000F9FB204410BD034611F8012B03F8012B6E
:10E8E000002AF9D1704710B57AB10346013984186E
:10E8F00013F8010B11F8012F904201D1A34201D16D
:10E90000801A10BD0028F3D1FAE71046F9E738B5B0
:10E9100003460C4669B9BDE83840FFF7C5BF431C44
:10E92000054621461846FFF7BFFF0028F7D12846C5
:10E9300038BD0025F5E70000012B2DE9F04701D097
:10E94000242B06D9FEF74AF8162303600020BDE801
:10E95000F0870D46DFF8E0C02E4615F8014B14F89D
:10E960000C7017F00807F7D12D2C32D12C78012725
:10E97000B51C002B5BD0102B09D1302C07D12C7883
:10E9800004F0DF04582C4DD16C781023023507F1C8
:10E9900000484FF0000C08F1FF386646B8FBF3F969
:10E9A00003FB198AA4F1300EBEF1090F16D8744684
:10E9B000A34224DDBCF1000F1EDBB1451CD301D105
:10E9C000A24519DB06FB03464FF0010C15F8014B7D
:10E9D000E8E72B2C04BF2C78B51CCAE7A4F1410E44
:10E9E000BEF1190F01D8373CE2E7A4F1610EBEF188
:10E9F000190F04D8573CDBE74FF0FF3CE6E7BCF1CA
:10EA0000000F05DA22234646036042B930469EE7EE
:10EA100007B17642002AF9D0BCF1000F00D0691E80
:10EA20001160F3E73024002BB1D10823AFE7302C7D
:10EA3000A5D00A23ABE700BFCBFE3F0213460A4630
:10EA4000014602480068FFF777BF00BFD0AD07104E
:10EA50002DE9F843DFF8BC8006461F460D46D8F87E
:10EA60000000914600F058F8264B1C6834B9264C3B
:10EA70001C60264B13B11B68C4F8883063681F2BD9
:10EA800007DDD8F8000000F049F84FF0FF30BDE88E
:10EA9000F8835EB3D4F8880088B91D4B23B9D8F841
:10EAA000000000F03AF8F0E74FF48470FDF75EFFE5
:10EAB0000028F4D00023C0E94033C4F8880063681C
:10EAC0000122022E40F8239002FA03F200EB8301A8
:10EAD000D0F8003143EA0203C0F80031C1F8807079
:10EAE00002BFD0F804311343C0F804316368D8F88A
:10EAF00000005A1C0233626044F8235000F00EF804
:10EB00000020C4E7E0AF071054AF0710000000007A
:10EB1000EDD93F0234AE07107047704770470000D0
:10EB200055D13F027DD13F0281D13F02000000005C
:10EB300043616C6C206F6E2070757265207669720F
:10EB40007475616C0000000000000000000000000F
:10EB500000000000000000009DD13F02C5D13F022F
:10EB60000000000000000000C9D13F02FDD13F02BB
:10EB70008DE93F0235EB3F0200000000000000007D
:10EB80000FDB3F0205DB3F02FBDA3F02F1DA3F0217
:10EB9000E5DA3F02D9DA3F02C9F13F02D1F13F0283
:10EBA000CDDA3F02C5DA3F02BBDA3F02B1DA3F02FB
:10EBB00001F23F02626175640053657269616C0025
:10EBC00053657269616C31004A534F4E53747265DC
:10EBD000616D4C6F6748616E646C65720061707046
:10EBE00000253031307520005D20002564002C2088
:10EBF0000028293A2000205B00636F6465203D20D7
:10EC00000025690064657461696C73203D20000D06
:10EC10000A006D0066006C6E00666E007400636F23
:10EC200064650064657461696C00000000000000A8
:10EC30000000000087DD3F02ADDD3F026BDD3F02DB
:10EC40001BF33F02000000000000000039E23F0219
:10EC500051E23F028DE93F0235EB3F020000000028
:10EC60000000000065E23F0279E23F026DEB3F02E7
:10EC700073DD3F02000000000000000085DD3F0260
:10EC8000BBDD3F02F1E83F0275DD3F0200000000FE
:10EC90000000000083DD3F02C9DD3F02A1E13F0229
:10ECA000EBDD3F0225592D256D2D25645425483A6D
:10ECB000254D3A2553257A0061736374696D6500AB
:10ECC000000000000000000061EE3F0251EE3F0234
:10ECD00053EE3F02000000000000000047EF3F023B
:10ECE000AFEF3F0285EF3F02D9DC3F0277EF3F02F3
:10ECF00049EF3F0259EF3F02A9EF3F0269EF3F02A0
:10ED000041EF3F0200000000000000004DF03F0214
:10ED1000B9F03F0291F03F02D9DC3F0261F03F02BF
:10ED20007DF03F026FF03F028BF03F024FF03F0259
:10ED300053F03F02000000000000000069F13F02B4
:10ED40005FF13F0255F13F020BF13F0249F13F02F3
:10ED50003DF13F02C9F13F02D1F13F0231F13F02E3
:10ED600029F13F021FF13F0215F13F0201F23F027C
:10ED7000000000000000000089F13F0293F13F0213
:10ED80009DF13F02A7F13F02B1F13F02BDF13F0209
:10ED9000C9F13F02D1F13F02D9F13F02E5F13F0253
:10EDA000EDF13F02F7F13F0201F23F0225750075D8
:10EDB0002530347800005245454E54206D616C6C0E
:10EDC0006F6320737563636565646564002F6D6EA2
:10EDD000742F776F726B73706163652F776F726BCF
:10EDE00073706163652F4743432D31302D70697017
:10EDF000656C696E652F6A656E6B696E732D47432E
:10EE0000432D31302D706970656C696E652D343815
:10EE10005F32303230313132345F31363036313872
:10EE2000303634312F7372632F6E65776C69622FC1
:10EE30006E65776C69622F6C6962632F7374646CA2
:10EE400069622F72616E642E6300002020202020F2
:10EE5000202020202828282828202020202020208A
:10EE6000202020202020202020202088101010107A
:10EE700010101010101010101010100404040404CE
:10EE800004040404041010101010101041414141FA
:10EE900041410101010101010101010101010101E2
:10EEA00001010101010110101010101042424242F4
:10EEB00042420202020202020202020202020202B2
:10EEC00002020202020210101010200000000000D6
:10EED0000000000000000000000000000000000032
:10EEE0000000000000000000000000000000000022
:10EEF0000000000000000000000000000000000012
:10EF00000000000000000000000000000000000001
:10EF100000000000000000000000000000000000F1
:10EF200000000000000000000000000000000000E1
:10EF300000000000000000000000000000000000D1
:10EF4000000000000000000000000000C9D33F02E4
:10EF500019DB3F022DDB3F02C9DC3F027DE93F02A6
:10EF6000E1EC3F02F5EC3F0275F13F02D9F23F02BE
:10EF700000000002FCFC3F0214FD3F0238FD3F028E
:10EF8000D4AD0710000000000000000000000000E9
:10EF90000000000000000000000000000000000071
:10EFA0000000000000000000000000000000000061
:10EFB0000000000000000000000000000000000051
:10EFC0000000000000000000000000000000000041
:10EFD0000000000000000000000000000000000031
:08EFE00000000000E4AF07107F
:04EFE8000000000025
:10FFBE000200100000C05F08A8C05F0828D13F02F1
:10FFCE0001000A00FFFFFFFFFFFF00000102030414
:10FFDE0005060708090A0B0C0D0E0F10111213144B
:0EFFEE0015161718191A1B1C1D1E1F203E0089
:04FFFC0078563412ED
:04000005085FC018B8
:00000001FF
