:02000004085F93
:10C0000000C05F08FCFF5F0800000600200005017B
:08C010000401381800000000D3
:10C018001348144908B5884205D0134A824202D011
:10C02800124B121A98471248124A0021124B121A40
:10C03800984712481249884205D0124A824202D0D3
:10C048000A4B121A984710481049884205D0104ADE
:10C05800824202D0054B121A9847014808BD00BF1A
:10C06800C0AD0710A8F05F0838AE07102D0D1110ED
:10C0780038AE0710FCAF0710A10E1110F8CF3F0221
:10C08800A8C05F0800D03F0200D03F02B0C05F08E0
:0CC09800F8FF3F0219C05F080000000024
:08C0A8009CC05F0874FB3F021D
:10C0B00010F8012B11F8013B012A28BF9A42F7D052
:10C0C000D01A7047034613F8012B002AFBD1181A27
:10C0D0000138704770B501F0A3FE0025054E064CEF
:10C0E000A41BA408AC4200D170BD56F8043B98478D
:10C0F0000135F7E7D0FF3F02F8FF3F0200F048B8F4
:10C1000008B500F0ABF8BDE8084001F041BE00F012
:10C1100049BC00F047BC00F053BC00000C2008B53F
:10C12000024A034900F00AFBFEE700BF99D33F0231
:10C1300084FB3F020078B0FA80F040097047012389
:10C14000037070477047000010B50446094B036048
:10C1500000F09AFF214601F0E3F901F06DFF01F0D4
:10C160005FFF2046044B40F8043B01F063F8204693
:10C1700010BD00BFBCFB3F02A4FB3F0210B504464C
:10C18000FFF7E2FF20462421FFF7C5FF204610BD40
:10C1900037B502F085FB042201230DEB02010820D4
:10C1A000019300F07BF902F07BFB042200250DEBEC
:10C1B00002010A20019500F071F902F071FB0422DE
:10C1C00026240DEB02010C20019400F067F902F027
:10C1D00067FB04220E200DEB0201019500F05EF9D1
:10C1E00002F05EFB042214200DEB0201019400F02A
:10C1F00055F902F055FB04223C230DEB02011620F9
:10C20000019300F04BF902F04BFB042219230DEBD4
:10C2100002011820019300F041F902F041FB0422D1
:10C220004B230DEB02011A20019300F037F902F0C5
:10C2300037FB04224FF402730DEB02011C20019323
:10C2400000F02CF902F02CFB042232231E200DEB0F
:10C250000201019300F022F903B030BD704770B5C0
:10C260001426D0E90053044606FB0356AE4204D020
:10C27000284600F069FC1435F8E7206800F0A0FBC0
:10C28000204670BD8842F8B504460D46164616D9BC
:10C29000904215D2A2F11406751AA1F114072C448C
:10C2A000B7421CD02CB13146204600F0B6FC337C9E
:10C2B0002374304600F048FC143E143CF0E70ED0E6
:10C2C000B5420CD02CB12946204600F0A6FC2B7CB0
:10C2D0002374284600F038FC14351434F0E7F8BD18
:10C2E00000232DE9F041C0E9003383604F68044624
:10C2F0009F420E4624DD4FF0140808FB07F000F0C3
:10C3000051FB0546E0B1D4E9001208FB0212FFF729
:10C31000B9FF206800F054FB2560A760D6E90073E0
:10C3200008FB0378B84509D03946284600F08FFC51
:10C330003B7C143505F8043C1437F3E773686360FD
:10C340002046BDE8F081000070B50024234B244A4C
:10C350008CB09A60C3E90044032000F019FA21462A
:10C36000012000F023FACDE90044029401F064FEBC
:10C370001C4C05462646694603A8FFF7B1FF03A9F2
:10C3800006A8FFF7ADFF184B06A946F8043B09A81D
:10C39000FFF7A6FF09AA1E21304601F0A3F909A85C
:10C3A000FFF75DFF06A8FFF75AFF104B25622360D9
:10C3B00003A8FFF754FF0E4B236001F03DFE4FF43E
:10C3C000165101F029FE00F05FFE214601F062F8EF
:10C3D0006846FFF744FF0CB070BD00BF38AE0710D1
:10C3E0000000FFFF44AE0710A4FB3F02A8FC3F0281
:10C3F000BCFB3F0209B504480068044B03441B68BA
:10C400009B68029309BD0000C0AD071050000000FA
:10C4100009B504480068044B03441B68DB680293B9
:10C4200009BD0000C0AD07105000000009B5044868
:10C430000068044B03441B685B68029309BD00005D
:10C44000C0AD07100000000009B504480068044BA7
:10C4500003441B68DB68029309BD0000C0AD0710F0
:10C460000000000009B504480068044B03441B6841
:10C470005B69029309BD0000C0AD07100000000019
:10C4800009B504480068044B03441B689B6A029387
:10C4900009BD0000C0AD07100000000009B5044848
:10C4A0000068044B03441B689B6C029309BD0000A9
:10C4B000C0AD07100000000009B504480068044B37
:10C4C00003441B685B6C029309BD0000C0AD0710FC
:10C4D0003000000009B504480068044B03441B68A1
:10C4E0009B6C029309BD0000C0AD07103000000036
:10C4F00009B504480068044B03441B68DB6C0293D5
:10C5000009BD0000C0AD07103000000009B50448A7
:10C510000068044B03441B685B6D029309BD000077
:10C52000C0AD07103000000009B504480068044B96
:10C5300003441B685B69029309BD0000C0AD07108E
:10C540004C00000009B504480068044B03441B6814
:10C550009B68029309BD0000C0AD071024000000D5
:10C5600009B504480068044B03441B68DB68029368
:10C5700009BD0000C0AD07102400000009B5044843
:10C580000068044B03441B681B69029309BD00004B
:10C59000C0AD07102400000009B504480068044B32
:10C5A00003441B685B69029309BD0000C0AD07101E
:10C5B0002400000009B504480068044B03441B68CC
:10C5C0009B69029309BD0000C0AD07102400000064
:10C5D00009B504480068044B03441B68DB690293F7
:10C5E00009BD0000C0AD07102400000009B50448D3
:10C5F0000068044B03441B681B6A029309BD0000DA
:10C60000C0AD07102400000009B504480068044BC1
:10C6100003441B689B6A029309BD0000C0AD07106C
:10C620002400000009B504480068044B03441B685B
:10C63000DB6A029309BD0000C0AD071024000000B2
:10C6400009B504480068044B03441B681B6C029343
:10C6500009BD0000C0AD07102400000009B5044862
:10C660000068044B03441B681B68029309BD00006B
:10C67000C0AD07103400000009B504480068044B41
:10C6800003441B685B68029309BD0000C0AD07103E
:10C690003400000009B504480068044B03441B68DB
:10C6A0009B68029309BD0000C0AD07103400000074
:10C6B00009B504480068044B03441B681B690293D6
:10C6C00009BD0000C0AD07103400000009B50448E2
:10C6D0000068044B03441B685B69029309BD0000BA
:10C6E000C0AD07103400000009B504480068044BD1
:10C6F00003441B689B69029309BD0000C0AD07108D
:10C700003400000009B504480068044B03441B686A
:10C71000DB69029309BD0000C0AD071034000000C2
:10C7200009B504480068044B03441B681B6A029364
:10C7300009BD0000C0AD07103400000009B5044871
:10C740000068044B03441B685B6B029309BD000047
:10C75000C0AD07104800000009B504480068044B4C
:10C7600003441B68DB6E029309BD0000C0AD0710D7
:10C770004800000009B504480068044B03441B68E6
:10C780001B6F029309BD0000C0AD071048000000F8
:10C7900009B504480068044B03441B685B680293B6
:10C7A00009BD0000C0AD07100800000009B504482D
:10C7B0000068044B03441B68DB6A029309BD000058
:10C7C000C0AD07100800000009B504480068044B1C
:10C7D00003441B68D3F88830029309BDC0AD07102D
:10C7E0000800000009B504480068044B03441B68B6
:10C7F000D3F89430029309BDC0AD071008000000C3
:10C8000009B504480068044B03441B685B68029345
:10C8100009BD0000C0AD07102800000009B504489C
:10C820000068044B03441B689B68029309BD000029
:10C83000C0AD07102800000009B504480068044B8B
:10C8400003441B68DB68029309BD0000C0AD0710FC
:10C850002800000009B504480068044B03441B6825
:10C860001B69029309BD0000C0AD0710280000003D
:10C8700009B504480068044B03441B685B690293D4
:10C8800009BD0000C0AD07102800000009B504482C
:10C890000068044B03441B689B69029309BD0000B8
:10C8A000C0AD07102800000009B504480068044B1B
:10C8B00003441B68DB69029309BD0000C0AD07108B
:10C8C0002800000009B504480068044B03441B68B5
:10C8D0001B6A029309BD0000C0AD071028000000CC
:10C8E00009B504480068044B03441B681B6B0293A2
:10C8F00009BD0000C0AD07102800000009B50448BC
:10C900000068044B03441B685B6B029309BD000085
:10C91000C0AD07102800000009B504480068044BAA
:10C9200003441B681B6C029309BD0000C0AD0710D7
:10C930002800000009B504480068044B03441B6844
:10C940005B6C029309BD0000C0AD07102800000019
:10C9500009B504480068044B03441B685B6D0293EF
:10C9600009BD0000C0AD07102800000009B504484B
:10C970000068044B03441B689B6D029309BD0000D3
:10C98000C0AD07102800000009B504480068044B3A
:10C9900003441B68DB6B029309BD0000C0AD0710A8
:10C9A0002C00000009B504480068044B03441B68D0
:10C9B0001B68029309BD0000C0AD07100400000011
:10C9C00009B504480068044B03441B685B68029384
:10C9D00009BD0000C0AD07100400000009B50448FF
:10C9E0000068044B03441B689B68029309BD000068
:10C9F000C0AD07100400000009B504480068044BEE
:10CA000003441B685B6A029309BD0000C0AD0710B8
:10CA10000400000009B504480068044B03441B6887
:10CA2000DB6B029309BD0000C0AD071004000000DD
:10CA300009B504480068044B03441B681B6C02934F
:10CA400009BD0000C0AD07100400000009B504488E
:10CA50000068044B03441B685B6C029309BD000033
:10CA6000C0AD071004000000002240681146FFF727
:10CA700029BF002240681146FFF740BF00224068EE
:10CA8000FFF72EBF0022406881F00101FFF70CBFC5
:10CA9000002340681A461946FFF7F8BE0023406895
:10CAA0001A461946FFF7E4BE002240681146FFF718
:10CAB000D1BE002240681146FFF7B0BE002202211D
:10CAC0004068FFF7B9BE002340681A46FFF798BEDA
:10CAD0000322024B5A60024A1A60704768AE071080
:10CAE000D4FB3F020B6803604B68436013B15A6884
:10CAF00001325A60704738B5046805467CB16368F6
:10CB0000013B63605BB9236820469B689847A36834
:10CB1000013BA3601BB923682046DB689847284681
:10CB200038BD000002220020044B1A60044B054A65
:10CB3000C3E900009A60FFF72BBE00BF7CAE071070
:10CB400070AE07100000FFFF10B504460068FFF745
:10CB500037FF204610BD10B50446006808B1FFF746
:10CB60002FFF0023C4E90133236010BD38B504460C
:10CB70000D4600680131FFF731FF10B1C4E900052F
:10CB8000012038BD10B50368044623B143688B42C9
:10CB900001D3012010BD2046FFF7E8FF0028F9D09F
:10CBA000A368002BF5D122681370F2E737B50D4664
:10CBB000114601920446FFF7E5FF019A28B9204685
:10CBC000FFF7C9FF204603B030BD2946A2602068A8
:10CBD00001F08EFE00212268A368D154F2E738B537
:10CBE000054600680C4670B16A688B689A4208D3A3
:10CBF000096831B101F0F1FEA368AB600023A360C6
:10CC000038BDFFF7DDFE23682B6063686B60A368A7
:10CC1000AB600023C4E90033F1E7002310B50446FC
:10CC2000C0E9003383600373FFF7D9FF204610BDCE
:10CC3000884210B5044605D00B682BB18A681946A6
:10CC4000FFF7B4FF204610BDFFF785FFFAE700238A
:10CC500010B50446C0E9003383600373FFF7E8FFB3
:10CC6000204610BD10B543680446013B436063B9DC
:10CC700003689B689847A368013BA3602BB92368AE
:10CC80002046BDE81040DB68184710BD70B504466B
:10CC9000D0E9005305EB0316AE4204D02846FFF757
:10CCA00053FF1035F8E72068FFF78AFE204670BD75
:10CCB000002302480360FFF7FFBB00BF80AE0710F0
:10CCC00010B5044680680368DB689847E368184439
:10CCD000E06010BDF8B506460D4600248F18BD4231
:10CCE0000CD0336830469B6815F8011B9847031E2B
:10CCF00001DB1C44F3E7002C08BF1C462046F8BDAE
:10CD0000704710B504461021FFF705FA204610BD04
:10CD100013B50446084659B10191FFF7D3F902460D
:10CD2000204623680199DB6802B0BDE8104018472F
:10CD300002B010BD03689B6818470023012A98BF02
:10CD40000A2230B58BB08DF8243009AC0D46B1FB0A
:10CD5000F2F101FB125303F0FF03092B94BF3033B0
:10CD60003733DBB2AA4204F8013DEFD92146FFF781
:10CD7000CFFF0BB030BD10B50446FFF773FBE0608A
:10CD8000236820465B699847002808DAFFF76AFBAA
:10CD9000E368C01AA3689842F2D34FF0FF3010BD89
:10CDA0002DE9F04107460C460D468E18B542A5EB1D
:10CDB000040807D03846FFF7DEFF031E02DB05F844
:10CDC000013BF3E74046BDE8F0817047084611B1EA
:10CDD0000B685B681847704770477047704738B5F5
:10CDE00004460D4600682E2101F0EDFD2368C31AAC
:10CDF0002B6023B1037803B101302368206018460B
:10CE000038BD10B504460421FFF785F9204610BD52
:10CE100010B504460421FFF77EF9204610BDFFF748
:10CE200067BB08B5FFF744F9B0FA80F0400908BDC8
:10CE3000704710B50C4601F0FFF8844205D101F0AF
:10CE4000FBF8BDE8104001F0EBB801F099FC84421A
:10CE500005D101F095FCBDE8104001F042BB2CB1BA
:10CE600023682046BDE810405B68184710BD13B525
:10CE7000044608460191FFF725F90246204601992C
:10CE800002B0BDE8104001F0C3BA13B5044608462D
:10CE90000191FFF717F90246204623680199DB68E4
:10CEA00002B0BDE81040184707B503688DF80710B9
:10CEB0000122DB680DF10701984703B05DF804FB20
:10CEC0002DE9F74F4FF0140AD0E900841746454684
:10CED0000AFB04F40093174BA4105C43002C21DDE3
:10CEE00066100AFB06F005EB0009B9F804B03A46F3
:10CEF0005F4528BF5A462858019101F076FD002869
:10CF00004FF0010301990BD15F4503D1009A1370D3
:10CF10003446E3E7FCD9A61B09F11405013EF7E707
:10CF2000F9DBF5E7A5EB08050248AD10684303B04F
:10CF3000BDE8F08FCDCCCCCC7FB50369057E0191E7
:10CF400003B3F9B1002600F10C04039603A901A86C
:10CF5000FFF745FF0146A8B10DF10B032046039AE8
:10CF60008DF80B60FFF7ACFF9DF80B3053B12368D1
:10CF7000142404FB0034B4F906300834002BA8BF95
:10CF8000DDB2E3E7284604B070BD0EB4F0B58CB056
:10CF900000AF07F1440555F8042B04462B46202129
:10CFA00007F110007A60FD60FFF726FD1F287A6800
:10CFB0001AD900F1080323F007036E46ADEB030D09
:10CFC000411C2B466846FD60FFF716FD021E04DD7E
:10CFD000236869462046DB689847B5463037BD462A
:10CFE000BDE8F04003B070470028F7D02368024640
:10CFF000DB68204607F110019847EFE710B5084CB1
:10D00000D4E88F3FDB0709D42046FFF793F828B117
:10D010002046FFF794F8034801F05CFC024810BD7D
:10D0200088AE071029DD3F02C4AD071010B5084CCB
:10D03000D4E88F3FDB0709D42046FFF77BF828B1FF
:10D040002046FFF77CF8034801F044FC024810BD7D
:10D050008CAE071081DD3F02C8AD071038B5002542
:10D060000446C0E90055C0E904558560856140F873
:10D07000245FFFF721FAFFF7C1FFE061FFF7D6FF5A
:10D0800025732062204638BD10B50A4CD4E88F3F86
:10D09000DB070CD42046FFF74DF840B10648FFF7F8
:10D0A000DDFF2046FFF74BF8044801F013FC02486F
:10D0B00010BD00BF84AE071094AE07104DE53F02CF
:10D0C0000023024A02490348FFF754BB35E33F02FD
:10D0D000C1E23F0241E23F0200231A4619461846C8
:10D0E000FFF748BB37B504468D686846FFF7FAFC82
:10D0F0006A462946204601F0ABF801A8FFF7FBFC81
:10D10000204603B030BD37B50446CD686846FFF70A
:10D11000E9FC6A462946204601F076F801A8FFF7A7
:10D12000EAFC204603B030BD37B504460D696846B9
:10D13000FFF7D8FC6A462946204601F00EF801A800
:10D14000FFF7D9FC204603B030BD000070B58AB0AF
:10D150000D46014604A8FFF7C5FF144E04A801F0D0
:10D160008FF8E8B1684604A9FFF7CDFF3146029871
:10D17000FFF757FE044610B12C1E18BF012401A86A
:10D18000FFF7B9FC002CE9D0684604A9FFF7CCFFF3
:10D19000684601F018F8286001A8FFF7ACFCDDE74D
:10D1A00005A8FFF7A8FC0AB070BD00BF28FC3F022D
:10D1B00037B50C46134920461546FEF779FF50B99E
:10D1C00000F03AFF4FF4165100F026FF03B0BDE81F
:10D1D000304000F031BF20460B49FEF769FF78B9B7
:10D1E0004FF4165301A928460193FFF7AFFF01F052
:10D1F000C7FA019901F072F901F0C2FA03B030BD2B
:10D200000020FBE72DFC3F0234FC3F0270B51426E2
:10D21000D0E90053044606FB0356AE4205D005F1A3
:10D220000800FFF7F3FF1435F7E72068FFF7C8FBA6
:10D23000204670BD10B504460C30FFF7E7FF2046CE
:10D24000FFF724FD204610BD10B50446034B40F8FF
:10D25000043BFFF7EFFF204610BD00BFA4FB3F02D9
:10D2600010B50446FFF7F0FF20462421FEF753FFD8
:10D27000204610BD10B50446024B0360FFF7E4FFE3
:10D28000204610BDC0FC3F0210B50446FFF7F2FF78
:10D2900020462421FEF73FFF204610BD0A6810B546
:10D2A00002604A6842600022C0E9022202618C6882
:10D2B0008A608460CC68CA60C4600C690A610461D9
:10D2C00010BD0022C0E90022826010B50C680A601F
:10D2D00004604C684A6044608C688A60846010BD59
:10D2E00010B5044603681868FFF710F9204610BD12
:10D2F0002DE9F04F87B003931C4B80465B6889464D
:10D30000C3F3080316466BB9FFF7BEFE044600F1EF
:10D310002403406A0593FFF782FD237B2BB105A808
:10D32000FFF7DEFF07B0BDE8F08F01235FFA89F950
:10D330002373D4E9005305EB830AAA4512D055F8AC
:10D34000047B3146381DFFF7F7FD8145F5D3039A7D
:10D350003B680092D3F808B04A4633464146384607
:10D36000D847EAE700232373D9E700BF00ED00E0C8
:10D370002DE9F74F9B461A4B80465B688946C3F3FD
:10D38000080316466BB9FFF77FFE044600F124033D
:10D39000406A0193FFF743FD237B2BB101A8FFF700
:10D3A0009FFF03B0BDE8F08F0123F6B22373D4E9E9
:10D3B000005305EB830A55450ED055F8047B5946BA
:10D3C000381DFFF7B9FD8642F5D33B684A46414612
:10D3D0003846DB689847EEE700232373DEE700BF9B
:10D3E00000ED00E02DE9F341164B05465B680F4662
:10D3F000C3F308031BBBFFF747FE044600F12403F9
:10D40000406A0193FFF70BFDD4E90063462406EB65
:10D410008308B04509D101A8FFF762FFA542B4BF58
:10D420000020012002B0BDE8F08156F8040B394617
:10D430000430FFF781FD8442A8BF0446E9E70020DD
:10D44000F0E700BF00ED00E0F8B5D0E901539D42E0
:10D4500004460E460DDB6F1C002F006804DDB9008A
:10D46000FFF7BCFA18B9F8BDFFF7AAFA0020206050
:10D47000A7602768626807EB85019200A2EB85022E
:10D48000081D01F042FA47F8256063680120013366
:10D490006360E8E737B5044600F12403406A01936E
:10D4A0000D46FFF7BCFCD4E9003203EB8202934245
:10D4B00019460AD009680433A942F8D101A8FFF738
:10D4C0000FFF0025284603B030BD29462046FFF750
:10D4D000BBFF05460028F1D06368012B01D1FFF79F
:10D4E000EFFD01A8FFF7FCFEECE70B4670B5044624
:10D4F000D0E9000200EB820282420FD001461D6893
:10D5000051F8046BAE4207D1521A01F0FEF9012026
:10D510006368013B636070BD0846EDE70020FAE7F1
:10D520001FB5044600F12403406A01910393FFF7FD
:10D5300076FC204601A9FFF7D8FF18B163680BB944
:10D54000FFF7CAFD03A8FFF7CBFE04B010BD1823F8
:10D5500070B50446D0E9045603FB0656AE4215D01A
:10D56000204605F11001FFF7C0FF63680BB9FFF714
:10D57000B3FDE06929690368DB689847696919B1F7
:10D58000206A0368DB6898471835E7E71826D4E96E
:10D59000045306FB0356AE4204D02846FFF7D4FAE4
:10D5A0001835F8E70023636170BD73B50446FFF7D3
:10D5B00093FD04F12403606A0193FFF730FC2046D9
:10D5C000FFF7C5FF01A8FFF78BFE606A08B1FEF701
:10D5D00081FFD4E90453182606FB0356AE4204D05B
:10D5E0002846FFF7B1FA1835F8E72069FFF7E8F9A0
:10D5F0002068FFF7E5F9204602B070BD0148FFF74B
:10D60000D4BF00BF94AE07108842F8B504460D465B
:10D61000164615D9904214D2A2F11406751AA1F13A
:10D6200014072C44B7421AD01CB131462046FFF7EC
:10D6300035FE06F10800FFF7E9FD143E143CF1E762
:10D640000DD0B5420BD01CB129462046FFF726FE6F
:10D6500005F10800FFF7DAFD14351434F1E7F8BDE1
:10D660008842F8B504460D46164614D9904213D2A6
:10D67000A2F11006751AA1F110072C44B74218D078
:10D680001CB131462046FFF7C8FA3046FFF75CFA76
:10D69000103E103CF2E70CD0B5420AD01CB129462E
:10D6A0002046FFF7BAFA2846FFF74EFA1035103435
:10D6B000F2E7F8BD70B50E1E054611DD3001FFF72B
:10D6C00071F9044658B1D5E9001201EB0212FFF7D7
:10D6D000C7FF2868FFF774F901202C60AE6070BDA9
:10D6E0000024F6E72DE9F04F90460023462295B03E
:10D6F0000391D8F8041004469942C0E90033C0E908
:10D700000233C0E90433CDE9083302760A9323DCFF
:10D71000D8E90057142303FB0757AF423BD02946F3
:10D720000BA8FFF77AFA0BA90FA8099EFFF775FA65
:10D73000DDE9091399421BDA089B099A03EB0616E7
:10D74000314603EB021206F11000FFF789FFEEB934
:10D75000099B0133099311E008A8FFF7ABFF0028EC
:10D76000D6D108A8FFF792FA204615B0BDE8F08F91
:10D77000013108A8FFF79EFF0028DDD10FA8FFF7B1
:10D78000E3F90BA8FFF7E0F91435C6E730460FA917
:10D79000FFF743FADCE700264FF01409CDE90B66EA
:10D7A0000D96DDE908239E427CDA3301D3580693B7
:10D7B0000BB90136F5E70023079309FB06F30BAD20
:10D7C000029307A906A8FFF70AFB82460028F0D0BB
:10D7D0004FF0000301468DF817302846079A0DF1E7
:10D7E0001703FFF76DFB9DF817700190002F4AD1CA
:10D7F000BDF81C30CDE91177ADF840304FF6FF731E
:10D80000CDF83CA0ADF842301397D5E901329342F0
:10D8100017DB03F1010ABAF1000F30DD09FB0AF052
:10D82000FFF7C0F8834660B3D5E9001209FB021286
:10D83000FFF7EAFE2868FFF7C3F8C5F800B0C5F89F
:10D8400008A02B68019A09FB023A6A68514609FB55
:10D8500002320AF11400FFF7D7FEBAF1000F03D02D
:10D8600050460FA9FFF71AFD6B6801336B6011A8D2
:10D87000FFF7CCFC3FB10BA8FFF7C8FC71E7BB4634
:10D88000D8E70127F3E7019B2D6809FB0355069BA9
:10D890001B782BB9D8F80030029A13441B7CEB801C
:10D8A00008358EE72168226062686360A368099288
:10D8B0000A9A0A93E368A2600B9A0B932369E260C9
:10D8C0000C9A0C93636922610D9A0D93039B089146
:10D8D00062612376CFE70000F0B50446264617467E
:10D8E00087B00D4668461946FEF7FAFC0B4B6946B1
:10D8F00046F8043B03A8FEF7F3FC394603AA30467A
:10D90000FFF7F0FE03A8FEF7AAFC6846FEF7A7FCA7
:10D910002046034B2562236007B0F0BDA4FB3F0205
:10D92000A8FC3F02F0B50F4685B038461C491646A4
:10D930001D460A9CFEF7BCFBC0B9A4B1294601A84C
:10D94000FFF7BFFC2420174900F0C0FF054630B1A7
:10D9500001AB32462146FFF7BFFF134B2B6001A8F6
:10D96000FEF77DFC2C46204605B0F0BD38460F4939
:10D97000FEF79EFB90B9002CF5D0294601A8FFF7D1
:10D98000A0FC2420074900F0A1FF05460028E6D0AE
:10D990003246214601ABFFF79FFFE0E70024E2E7B4
:10D9A0003CFC3F0238FE3F02C0FC3F0240FC3F020D
:10D9B000014B024A1A60704790AE071051FC3F02BB
:10D9C0002DE9F047089DD0F8209004460E461746F2
:10D9D000984600F031FB81454DD02B79190704D5CD
:10D9E00020466A695449FFF7D0FAB8F1000F0DD00C
:10D9F0005B212046FFF758FA41462046FFF745FADB
:10DA0000236802222046DB684C4998472B79DA07C5
:10DA100024D5D5F808802F21404600F0FAFF08B140
:10DA200000F1010841462046FFF72FFA2B799B07AA
:10DA300008D53A212046FFF737FA2046EA684049E0
:10DA4000FFF7A3FA2A79236812F0040F20464FF05B
:10DA50000202DB6814BF3B493B4998472B795807C2
:10DA60001DD529690B461A4613F8010B60B1202811
:10DA700008D11946F7E7354800F0BDFD0028ACD0C5
:10DA8000BDE8F0872828EED12368521A2046DB68CB
:10DA90009847236804222046DB682D4998470021D7
:10DAA0003846FEF759FE01462046FFF7EEF9236897
:10DAB00002222046DB68244998471EB131462046A1
:10DAC000FFF7E3F92B7913F0300F2CD023682149AD
:10DAD000DB680222204698472B79D9060AD52368AD
:10DAE000072220461C49DB6898472046AA691B4943
:10DAF000FFF74BFA2B799A0611D5DB0605D523687B
:10DB000002222046DB680F499847236820461449C3
:10DB10000A22DB6898472046E969FFF7B6F95D21DC
:10DB20002046FFF7C1F923682046BDE8F0470222EE
:10DB3000DB680C49184700BF55FC3F025CFC3F0204
:10DB40005FFC3F0262FC3F0267FC3F020CAF071024
:10DB500065FC3F026AFC3F026DFC3F0275FC3F0220
:10DB600078FC3F0283FC3F022DE9F0410446076A3E
:10DB70000D46164600F060FA874207D0206A32460A
:10DB800003682946BDE8F041DB681847034800F008
:10DB900032FD0028F2D0BDE8F08100BF0CAF0710C5
:10DBA0002DE9F04385B0D0F8209005460F46904609
:10DBB0001E460C9C00F040FA814505D1494800F012
:10DBC0001AFD002840F08A804FF000092B6A464A6F
:10DBD0006846CDE9023900928DF8049000F079FB97
:10DBE00049464046FEF7B8FD804640490122684656
:10DBF00000F0FEFB4146FFF73AF93FB13C490122F4
:10DC0000684600F0F5FB3946FFF731F93EB1394976
:10DC10000122684600F0ECFB3146FFF728F9237932
:10DC2000DF070ED5A6682F21304600F0F2FE00B1C6
:10DC3000461C31490122684600F0DAFB3146FFF705
:10DC400016F923799E0707D52C490222684600F071
:10DC5000CFFBE16800F04AFB2379580714D5266909
:10DC600033461F4613F8012B2AB1202A01D11E4644
:10DC7000F7E7282AF5D102222149684600F0B8FBCF
:10DC80003146BA1B00F0C4FB2379190707D51D499B
:10DC90000122684600F0ACFB616900F039FB237992
:10DCA000DA0607D518490422684600F0A1FBA169ED
:10DCB00000F01CFB23799B0607D514490622684611
:10DCC00000F096FBE169FFF7D2F8684600F0EBFA46
:10DCD000286A022203680E49DB68984705B0BDE850
:10DCE000F08300BF0CAF071018FC3F0232FC3F026C
:10DCF00086FC3F02CBFE3F0288FC3F028AFC3F02CB
:10DD00008DFC3F0290FC3F0292FC3F0297FC3F02D9
:10DD100083FC3F02024B1A68024B1A60704700BF37
:10DD2000CCAD0710BCAE07100022014B9A607047C3
:10DD3000C0AE0710014B1860704700BFD0AD071090
:10DD400008B50F4B43B100F077F903681B6998479A
:10DD5000002801DD00E000BF0A4B43B100F010FDD8
:10DD600003681B699847002801DD00E000BF064BEF
:10DD70000BB100F04BFD054B0BB100F07DFD08BD74
:10DD80000000000000000000000000000000000093
:10DD900008B5FFF7D5FFFEF765FB014B186008BD1E
:10DDA0005CAF07100548064A08B5121A054900F08D
:10DDB0009FFD054B054A1A6008BD00BF00B407105F
:10DDC00004B4071020F15F0800B407101E1C279A46
:10DDD000002307B51A466FF077010093FEF702FDA6
:10DDE00003B05DF804FB000007B543880A2B08D098
:10DDF000502B0BD1094B1B684BB103B05DF804EB02
:10DE00001847FFF7E5FF03B05DF804FB00231A464F
:10DE10006FF077010093FEF7E5FCF4E7D4AE07104E
:10DE2000002110B51148FEF711FE114B1A68114B75
:10DE30009A420CBF012200220F4B1A7001D0FFF74B
:10DE4000B1FFFEF7F3FA044600F082FD0B4B13B16D
:10DE5000204600E000BF00210848FEF795FDBDE820
:10DE6000104000210648FEF7AFBC00BF85EC3F0222
:10DE700000B407101E1C279AD0AE07100000000047
:10DE800039ED3F02704710B504461821FEF743F9FB
:10DE9000204610BDF0B5037D0E46062B4FF0000462
:10DEA0008DB000F1040712D000F1080515F8011D2E
:10DEB0000A223046FEF741FFAF42044419D0002C3D
:10DEC000F4D02E213046FEF735FF0444EEE72F2331
:10DED0006A4639460A208DF80040FEF725FB684661
:10DEE000FEF7F0F83368024669463046DB6898472B
:10DEF000044620460DB0F0BD10B50446044B112277
:10DF0000002140F8043B00F01AFD204610BD00BF80
:10DF100024FD3F020346074A10B543F8042B01F1E4
:10DF2000100251F8044B914243F8044BF9D10A789E
:10DF30001A7010BD24FD3F0210B59DF8084044EA58
:10DF4000032343EA0242042342EA0161416003756C
:10DF500010BD000007B5064B0360CB7800938B78AB
:10DF60004A780978FFF7E8FF03B05DF804FB00BFCB
:10DF700024FD3F02417470477047704708B5002187
:10DF8000007CFEF7B1FB40EAE07008BD08B5012156
:10DF9000007CFEF7A9FB40EAE07008BD08B5007CF4
:10DFA000FEF794FB20EAE07008BD08B5007CFEF7A0
:10DFB0007FFB20EAE07008BD13B50446007C0191A8
:10DFC000FEF784FB0028019901DC607C20B1207CF5
:10DFD000FEF798FB20EAE07002B010BD007CFEF76F
:10DFE0009FBB10B504461421FEF795F8204610BDDE
:10DFF00010B54FF47A73044608460021C4E90113B2
:10E00000044B20742360012311466374FEF726FB42
:10E01000204610BD38FD3F020022007CFEF72CBBDD
:10E02000007CFEF737BB10B504461422002100F037
:10E0300086FC204610BD000010B588B003A8FFF78D
:10E04000F2FF0C4CD4E88F1F11F001010FD12046D4
:10E050000191FEF76FF8019948B103AA0648FFF74E
:10E06000C7FF2046FEF76BF8044800F033FC024877
:10E0700008B010BDD8AE0710DCAE0710C9EE3F02E5
:10E08000012200F1100313F8101C1846012908D1D1
:10E0900053F8041C02EB4102013A03F11003F2D1E0
:10E0A0007047022904BF53F8041C5218F4E70EB459
:10E0B000F0B588B0102100AF07F1340555F8042BF6
:10E0C00004462B4678187A60FD60FEF795FC0F2811
:10E0D0007A681AD900F1080323F007036E46ADEB06
:10E0E000030D411C2B466846FD60FEF785FC021EB1
:10E0F00004DD2368694620469B689847B54620376B
:10E10000BD46BDE8F04003B070470028F7D0236853
:10E1100002469B68204607F110019847EFE738B5A3
:10E120000B68044603604D6843689D4208D015B1F2
:10E130006B6801336B60606808B1FEF793FD656042
:10E1400038BD07B503688DF8071001229B680DF1F3
:10E150000701984703B05DF804FB0B461146002207
:10E1600010B50446C0E9002283600BB9204610BDFB
:10E17000FFF7D5FFFAE78368EBB11A78032A1AD8BC
:10E18000DFE802F00417021B0520704702685B6895
:10E190005268D05C2D2812D0A0F13003092B0ED983
:10E1A00074280ED066280CD0A0F16E035842584156
:10E1B00070470620704700207047042070470320F6
:10E1C00070470220704710B50446FFF7D4FF0228BD
:10E1D0000ED0C31EDBB2012B14D82268A36850688E
:10E1E0005B680A22BDE810400021184400F0A8BC7A
:10E1F0002268A36852685B68D05CA0F1740358423F
:10E20000584110BD0020FCE738B500230446C0E9A2
:10E2100000330E48C4E90203A9B10B78032B06D0E2
:10E220008BB9136858684B68C35C6E2B07D01368B2
:10E230004D6858688B6828445B1BA060E3601146FA
:10E240002046FFF76CFF204638BD00BF85FC3F022B
:10E2500038B500250B4604461146C0E90055C0E913
:10E260000255C0E904554BB11A78012A06D103F1D1
:10E270001002DB6882604361FFF751FF204638BD22
:10E2800010B54369044663B18068013BE06010301B
:10E29000A0602061636113B1FFF7F2FEA06001206E
:10E2A00000E0184610BD10B57D210446FFF749FF78
:10E2B00001232046237110BD08B50379012B02D03C
:10E2C000022B04D008BD2C21FFF73BFFFAE73A21CF
:10E2D000FAE710B50446FFF7EFFF20467B21FFF772
:10E2E00030FF00232046237110BD000013B5044603
:10E2F0000191FFF7E1FF23682046DB68019A03499B
:10E30000984701232046237102B010BD5FFC3F02F5
:10E3100013B504460191FFF7CFFF23682046DB6861
:10E32000019A0349984701232046237102B010BD8A
:10E3300064FD3F022DE9F0470D4690462221044638
:10E340002F46FFF7FEFEDFF8A490A8444745BA46E3
:10E350003DD017F8016B222E06D05C2E04D030463B
:10E3600000F0BEFA0028F1D12368294620469B68B8
:10E37000AAEB050298475C212046FFF7E2FE0D2E2E
:10E380000AD8072E1CD9A6F10803052B18D8DFE8F8
:10E3900003F00D0F11171315222E01D05C2E0FD193
:10E3A00031462046FFF7CDFE3D46CFE76221F8E734
:10E3B0007421F6E76E21F4E76621F2E77221F0E7B7
:10E3C0002368324649462046DB689847ECE7BD4261
:10E3D00005D02368294620469B687A1B984722214E
:10E3E0002046FFF7AEFEBDE8F08700BF67FD3F02A5
:10E3F00013B50446CDE90021FFF75EFFDDE90021FA
:10E400002046FFF797FF02232046237102B010BD7C
:10E4100013B50446CDE90021FFF74EFFDDE90021E9
:10E420002046FFF787FF01232046237102B010BD6D
:10E4300070474174704708B5007CFEF7E5F820EAA4
:10E44000E07008BD08B5007CFEF798F820EAE0709F
:10E4500008BD08B5007CFEF7ADF840EAE07008BDE5
:10E4600008B5007CFEF798F840EAE07008BD007C33
:10E47000FEF7AEB837B5457C04462DB1207C03B01D
:10E48000BDE83040FEF76CB8007C0191FEF7BCF8A7
:10E4900000280199F2DC284603B030BD10B50446CF
:10E4A0001421FDF738FE204610BD000010B54FF4D2
:10E4B0007A730446084611460022C4E90123044B3E
:10E4C0002074236001236374FEF7BAF8204610BD60
:10E4D00078FD3F020023007CFEF7A4B80022FFF77E
:10E4E000F9BF007CFEF72EB8007CFEF77FB8000075
:10E4F000FF210022044B0120C3E9001264211A61AC
:10E50000C3E90201704700BFF0AE07100022406867
:10E510001146FEF79FB9002240681146FEF7D2B9B6
:10E52000002240681146FEF7E9B900224068FEF774
:10E53000D7B90022406881F00101FEF7B5B9002388
:10E5400040681A461946FEF7A1B9002340681A46EA
:10E550001946FEF78DB9002240681146FEF75EB9F4
:10E56000002202214068FEF767B9002340681A467E
:10E57000FEF746B90422024B5A60024A1A607047FD
:10E5800004AF0710ACFD3F02002340681A46FEF7B7
:10E5900037B9002202214068FEF74EB900224068D8
:10E5A0001146FEF73BB9002240681146FEF752B90A
:10E5B000002340681A461946FEF75AB900234068FE
:10E5C0001A461946FEF762B900214068FEF7A4B961
:10E5D00000214068FEF7AEB90022406881F00101D9
:10E5E000FEF762B900224068FEF77AB9002240685F
:10E5F0001146FEF783B9002240681146FEF762B962
:10E6000000214068FEF7B2B92DE9F04395B01446F9
:10E610000D460746FFF770FC00211C220DA8009153
:10E6200000F08DF9402320460C9300216B460CAA84
:10E63000FDF7EEFE044600284BD102460121686832
:10E64000FEF708F90221804622466868FEF702F9C3
:10E6500021468146009E002E3BD0002939D17368A7
:10E66000022B03D00A2B11D0F669F4E7B8F1000FA2
:10E67000FAD0716906A804313C1D07ADFFF76AFCAA
:10E680000FCD0FC42B6841462370EDE7B9F1000FA1
:10E69000EAD0102201A8746900F051F9062301ADF7
:10E6A0008DF8143004F1080318342A4618685968A4
:10E6B000083303C2A3421546F7D101A906A83C1DA1
:10E6C00007ADFFF727FC0FCD0FC42B684946237019
:10E6D000CAE70098FDF78EFE384615B0BDE8F08316
:10E6E000033802289ABF024B53F8200001487047B4
:10E6F000E8FD3F020CAF071008B500224068FEF7A6
:10E7000027F9BDE80840FFF7EBBF0000024B034AC2
:10E710001A6000225A6070470CAF0710FCFD3F02E0
:10E720007047000038B5142504462A46002100F041
:10E7300006F925804025074928462581258200F0D5
:10E74000C7F804496060284600F0C2F8E06020463F
:10E7500038BD00BF38FE3F027047704710B5044611
:10E76000FFF7E0FF204610BD10B50446FFF7DAFFC3
:10E77000204610BD10B50446FFF7D4FF204610BD5B
:10E7800030B50E4D87B0D5E88F1F11F0010411D1BF
:10E790002846FDF7CFFC68B101A8FFF7DFFF21464F
:10E7A00001AA0748FFF782FE2846FDF7C8FC054886
:10E7B00000F090F8024807B030BD00BF14AF07105A
:10E7C00020AF071071F63F0210B50D4C86B0D4E8AB
:10E7D0008F3FDB0711D42046FDF7ACFC68B101A8E0
:10E7E000FFF7C2FF012101AA0648FFF75FFE20469E
:10E7F000FDF7A5FC044800F06DF8024806B010BD16
:10E8000018AF071034AF0710ABF63F0210B5FFF793
:10E81000DBFF074B044653B1FFF766FE38B12368B0
:10E8200020461B699847002801DD00E000BF10BDAD
:10E830000000000010B50D4C86B0D4E88F3FDB0718
:10E8400011D42046FDF776FC68B101A8FFF792FFCE
:10E85000022101AA0648FFF729FE2046FDF76FFCBA
:10E86000044800F037F8024806B010BD1CAF07108E
:10E8700048AF0710A9F63F0210B5FFF7DBFF074BC3
:10E88000044653B1FFF730FE38B1236820461B69B8
:10E890009847002801DD00E000BF10BD0000000027
:10E8A00010B5084CD4E88F3FDB0708D42046FDF7AD
:10E8B00041FC20B1FDF7E4FD2046FDF740FC024895
:10E8C00010BD00BF60AF071064AF0710FDF71FBC9D
:10E8D000FDF71FBC002301461A46184600F03AB95E
:10E8E000024B1844407800F097007047CDFE3F027D
:10E8F0000A44431E914200D1704710B511F8014BF4
:10E90000914203F8014FF9D110BD884210B501EBD7
:10E91000020402D98442234607D8431EA14208D0EC
:10E9200011F8012B03F8012FF8E7024401468A424F
:10E9300000D110BD13F8014D02F8014DF7E7024474
:10E940000346934200D1704703F8011BF9E700002A
:10E9500038B5104B04461D68AB6BB3B91820FEF7F1
:10E9600021F80246A86320B90B4B42210B48FEF761
:10E970005FF80B490B4BC0E900130B4B0021836080
:10E980000B2383810120C2E90401AB6B00221C61CF
:10E990005A6138BDD0AD071039FE3F0250FE3F022C
:10E9A0000E33CDAB34126DE6ECDE0500C9B2034682
:10E9B00010F8012B1AB18A42F9D118467047002984
:10E9C00018BF0023F9E710B50446FFF7EFFF18B9A9
:10E9D0002046FDF777FB204410BD034611F8012BBC
:10E9E00003F8012B002AF9D1704710B57AB103461C
:10E9F0000139841813F8010B11F8012F904201D14D
:10EA0000A34201D1801A10BD0028F3D1FAE71046C5
:10EA1000F9E738B503460C4669B9BDE83840FFF759
:10EA2000C5BF431C054621461846FFF7BFFF002817
:10EA3000F7D1284638BD0025F5E70000012B2DE968
:10EA4000F04701D0242B06D9FDF7E4FF162303601D
:10EA50000020BDE8F0870D46DFF8E0C02E4615F82F
:10EA6000014B14F80C7017F00807F7D12D2C32D198
:10EA70002C780127B51C002B5BD0102B09D1302C32
:10EA800007D12C7804F0DF04582C4DD16C7810237A
:10EA9000023507F100484FF0000C08F1FF386646D8
:10EAA000B8FBF3F903FB198AA4F1300EBEF1090F8C
:10EAB00016D87446A34224DDBCF1000F1EDBB1451D
:10EAC0001CD301D1A24519DB06FB03464FF0010C14
:10EAD00015F8014BE8E72B2C04BF2C78B51CCAE7CE
:10EAE000A4F1410EBEF1190F01D8373CE2E7A4F1C1
:10EAF000610EBEF1190F04D8573CDBE74FF0FF3C25
:10EB0000E6E7BCF1000F05DA22234646036042B96E
:10EB100030469EE707B17642002AF9D0BCF1000FDB
:10EB200000D0691E1160F3E73024002BB1D1082317
:10EB3000AFE7302CA5D00A23ABE700BFCEFE3F02E3
:10EB400013460A46014602480068FFF777BF00BF38
:10EB5000D0AD07102DE9F843DFF8BC8006461F460C
:10EB60000D46D8F80000914600F058F8264B1C6876
:10EB700034B9264C1C60264B13B11B68C4F888308E
:10EB800063681F2B07DDD8F8000000F049F84FF04C
:10EB9000FF30BDE8F8835EB3D4F8880088B91D4B18
:10EBA00023B9D8F8000000F03AF8F0E74FF4847089
:10EBB000FDF7F8FE0028F4D00023C0E94033C4F884
:10EBC000880063680122022E40F8239002FA03F2C3
:10EBD00000EB8301D0F8003143EA0203C0F80031B2
:10EBE000C1F8807002BFD0F804311343C0F804317B
:10EBF0006368D8F800005A1C0233626044F823505E
:10EC000000F00EF80020C4E7F4AF071068AF07105B
:10EC100000000000F5D83F0234AE0710704770477F
:10EC20007047000025D03F024DD03F0251D03F0237
:10EC30000000000043616C6C206F6E20707572657F
:10EC4000207669727475616C00000000000000009D
:10EC50000000000000000000000000006DD03F0236
:10EC600095D03F02000000000000000099D03F0254
:10EC7000CDD03F0211E93F02B9EA3F020000000097
:10EC80000000000017DA3F020DDA3F0203DA3F020C
:10EC9000F9D93F02EDD93F02E1D93F0219F53F0210
:10ECA00021F53F02D5D93F02CDD93F02C3D93F025A
:10ECB000B9D93F0249F63F0251F53F0259F53F02EB
:10ECC000000000000000000051DC3F0253DC3F0266
:10ECD00011DC3F02FFEF3F02626175640053657211
:10ECE00069616C0053657269616C31004A534F4E23
:10ECF00053747265616D4C6F6748616E646C6572C8
:10ED00000061707000253031307520005D200025D5
:10ED100064002C200028293A2000205B00636F64E7
:10ED200065203D200025690064657461696C73206D
:10ED30003D20000D0A006D0066006C6E00666E00DE
:10ED40007400636F64650064657461696C00000041
:10ED5000000000000000000099E13F02B1E13F0225
:10ED600011E93F02B9EA3F02000000000000000084
:10ED7000C5E13F02D9E13F02F1EA3F021BDD3F025C
:10ED800000000000000000002DDD3F0253DD3F02C7
:10ED900075E83F021DDD3F0200000000000000009A
:10EDA0002BDD3F0261DD3F0201E13F0283DD3F02D7
:10EDB00025592D256D2D25645425483A254D3A2594
:10EDC00053257A0061736374696D6500000000006B
:10EDD00000000000E5ED3F02D5ED3F02D7ED3F0218
:10EDE0000000000000000000CBEE3F0233EF3F02C6
:10EDF00009EF3F0225DC3F02FBEE3F02CDEE3F0272
:10EE0000DDEE3F022DEF3F02F1DC3F02EDEE3F026F
:10EE1000C5EE3F02257500752530347800000000EE
:10EE2000000000000000000081F33F02EDF33F020C
:10EE3000C5F33F0225DC3F0295F33F02B1F33F02E9
:10EE4000A3F33F02BFF33F02F1DC3F0283F33F0233
:10EE500087F33F020000000000000000BBF43F0207
:10EE6000B1F43F02A7F43F025DF43F029BF43F027E
:10EE70008FF43F0219F53F0221F53F0283F43F0270
:10EE80007BF43F0271F43F0267F43F0249F63F0210
:10EE900051F53F0259F53F0268AE071004AF071065
:10EEA0000CAF07100000000000000000D9F43F0282
:10EEB000E3F43F02EDF43F02F7F43F0201F53F02B5
:10EEC0000DF53F0219F53F0221F53F0229F53F02FA
:10EED00035F53F023DF53F0247F53F0249F63F0257
:10EEE00051F53F0259F53F02005245454E54206D01
:10EEF000616C6C6F63207375636365656465640042
:10EF00002F6D6E742F776F726B73706163652F77DF
:10EF10006F726B73706163652F4743432D31302DE2
:10EF2000706970656C696E652F6A656E6B696E736A
:10EF30002D4743432D31302D706970656C696E65C6
:10EF40002D34385F32303230313132345F31363047
:10EF5000363138303634312F7372632F6E65776CEB
:10EF600069622F6E65776C69622F6C6962632F73BB
:10EF700074646C69622F72616E642E6300002020DD
:10EF80002020202020202028282828282020202059
:10EF90002020202020202020202020202020881019
:10EFA0001010101010101010101010101010040479
:10EFB0000404040404040404101010101010104180
:10EFC00041414141410101010101010101010101F1
:10EFD0000101010101010101011010101010104286
:10EFE00042424242420202020202020202020202C1
:10EFF000020202020202020202101010102000009F
:10F000000000000000000000000000000000000000
:10F0100000000000000000000000000000000000F0
:10F0200000000000000000000000000000000000E0
:10F0300000000000000000000000000000000000D0
:10F0400000000000000000000000000000000000C0
:10F0500000000000000000000000000000000000B0
:10F0600000000000000000000000000000000000A0
:10F070000000000000000000000000000000000090
:10F0800099D23F0221DA3F0275DA3F0201DC3F02EA
:10F0900001E93F0265EC3F0279EC3F0241F43F0297
:08F0A000C5F43F025DF63F02DA
:10F0A80000000002D8FC3F02F0FC3F0214FD3F02C2
:10F0B800D4AD0710000000000000000000000000B0
:10F0C8000000000000000000000000000000000038
:10F0D8000000000000000000000000000000000028
:10F0E8000000000000000000000000000000000018
:10F0F8000000000000000000000000000000000008
:10F1080000000000000000000000000000000000F7
:08F1180000000000F8AF071031
:04F1200000000000EB
:10FFBE000200100000C05F08A8C05F08F8CF3F0223
:10FFCE0001000A00FFFFFFFFFFFF00000102030414
:10FFDE0005060708090A0B0C0D0E0F10111213144B
:0EFFEE0015161718191A1B1C1D1E1F203E0089
:04FFFC0078563412ED
:04000005085FC018B8
:00000001FF
